{
  "contractName": "MyNFT",
  "abi": [
    {
      "inputs": [],
      "stateMutability": "nonpayable",
      "type": "constructor"
    },
    {
      "anonymous": false,
      "inputs": [
        {
          "indexed": true,
          "internalType": "address",
          "name": "owner",
          "type": "address"
        },
        {
          "indexed": true,
          "internalType": "address",
          "name": "approved",
          "type": "address"
        },
        {
          "indexed": true,
          "internalType": "uint256",
          "name": "tokenId",
          "type": "uint256"
        }
      ],
      "name": "Approval",
      "type": "event"
    },
    {
      "anonymous": false,
      "inputs": [
        {
          "indexed": true,
          "internalType": "address",
          "name": "owner",
          "type": "address"
        },
        {
          "indexed": true,
          "internalType": "address",
          "name": "operator",
          "type": "address"
        },
        {
          "indexed": false,
          "internalType": "bool",
          "name": "approved",
          "type": "bool"
        }
      ],
      "name": "ApprovalForAll",
      "type": "event"
    },
    {
      "anonymous": false,
      "inputs": [
        {
          "indexed": true,
          "internalType": "address",
          "name": "previousOwner",
          "type": "address"
        },
        {
          "indexed": true,
          "internalType": "address",
          "name": "newOwner",
          "type": "address"
        }
      ],
      "name": "OwnershipTransferred",
      "type": "event"
    },
    {
      "anonymous": false,
      "inputs": [
        {
          "indexed": true,
          "internalType": "address",
          "name": "from",
          "type": "address"
        },
        {
          "indexed": true,
          "internalType": "address",
          "name": "to",
          "type": "address"
        },
        {
          "indexed": true,
          "internalType": "uint256",
          "name": "tokenId",
          "type": "uint256"
        }
      ],
      "name": "Transfer",
      "type": "event"
    },
    {
      "inputs": [
        {
          "internalType": "address",
          "name": "to",
          "type": "address"
        },
        {
          "internalType": "uint256",
          "name": "tokenId",
          "type": "uint256"
        }
      ],
      "name": "approve",
      "outputs": [],
      "stateMutability": "nonpayable",
      "type": "function"
    },
    {
      "inputs": [
        {
          "internalType": "address",
          "name": "owner",
          "type": "address"
        }
      ],
      "name": "balanceOf",
      "outputs": [
        {
          "internalType": "uint256",
          "name": "",
          "type": "uint256"
        }
      ],
      "stateMutability": "view",
      "type": "function",
      "constant": true
    },
    {
      "inputs": [
        {
          "internalType": "uint256",
          "name": "tokenId",
          "type": "uint256"
        }
      ],
      "name": "getApproved",
      "outputs": [
        {
          "internalType": "address",
          "name": "",
          "type": "address"
        }
      ],
      "stateMutability": "view",
      "type": "function",
      "constant": true
    },
    {
      "inputs": [
        {
          "internalType": "address",
          "name": "owner",
          "type": "address"
        },
        {
          "internalType": "address",
          "name": "operator",
          "type": "address"
        }
      ],
      "name": "isApprovedForAll",
      "outputs": [
        {
          "internalType": "bool",
          "name": "",
          "type": "bool"
        }
      ],
      "stateMutability": "view",
      "type": "function",
      "constant": true
    },
    {
      "inputs": [],
      "name": "name",
      "outputs": [
        {
          "internalType": "string",
          "name": "",
          "type": "string"
        }
      ],
      "stateMutability": "view",
      "type": "function",
      "constant": true
    },
    {
      "inputs": [],
      "name": "owner",
      "outputs": [
        {
          "internalType": "address",
          "name": "",
          "type": "address"
        }
      ],
      "stateMutability": "view",
      "type": "function",
      "constant": true
    },
    {
      "inputs": [
        {
          "internalType": "uint256",
          "name": "tokenId",
          "type": "uint256"
        }
      ],
      "name": "ownerOf",
      "outputs": [
        {
          "internalType": "address",
          "name": "",
          "type": "address"
        }
      ],
      "stateMutability": "view",
      "type": "function",
      "constant": true
    },
    {
      "inputs": [],
      "name": "renounceOwnership",
      "outputs": [],
      "stateMutability": "nonpayable",
      "type": "function"
    },
    {
      "inputs": [
        {
          "internalType": "address",
          "name": "from",
          "type": "address"
        },
        {
          "internalType": "address",
          "name": "to",
          "type": "address"
        },
        {
          "internalType": "uint256",
          "name": "tokenId",
          "type": "uint256"
        }
      ],
      "name": "safeTransferFrom",
      "outputs": [],
      "stateMutability": "nonpayable",
      "type": "function"
    },
    {
      "inputs": [
        {
          "internalType": "address",
          "name": "from",
          "type": "address"
        },
        {
          "internalType": "address",
          "name": "to",
          "type": "address"
        },
        {
          "internalType": "uint256",
          "name": "tokenId",
          "type": "uint256"
        },
        {
          "internalType": "bytes",
          "name": "_data",
          "type": "bytes"
        }
      ],
      "name": "safeTransferFrom",
      "outputs": [],
      "stateMutability": "nonpayable",
      "type": "function"
    },
    {
      "inputs": [
        {
          "internalType": "address",
          "name": "operator",
          "type": "address"
        },
        {
          "internalType": "bool",
          "name": "approved",
          "type": "bool"
        }
      ],
      "name": "setApprovalForAll",
      "outputs": [],
      "stateMutability": "nonpayable",
      "type": "function"
    },
    {
      "inputs": [
        {
          "internalType": "bytes4",
          "name": "interfaceId",
          "type": "bytes4"
        }
      ],
      "name": "supportsInterface",
      "outputs": [
        {
          "internalType": "bool",
          "name": "",
          "type": "bool"
        }
      ],
      "stateMutability": "view",
      "type": "function",
      "constant": true
    },
    {
      "inputs": [],
      "name": "symbol",
      "outputs": [
        {
          "internalType": "string",
          "name": "",
          "type": "string"
        }
      ],
      "stateMutability": "view",
      "type": "function",
      "constant": true
    },
    {
      "inputs": [
        {
          "internalType": "uint256",
          "name": "tokenId",
          "type": "uint256"
        }
      ],
      "name": "tokenURI",
      "outputs": [
        {
          "internalType": "string",
          "name": "",
          "type": "string"
        }
      ],
      "stateMutability": "view",
      "type": "function",
      "constant": true
    },
    {
      "inputs": [
        {
          "internalType": "address",
          "name": "from",
          "type": "address"
        },
        {
          "internalType": "address",
          "name": "to",
          "type": "address"
        },
        {
          "internalType": "uint256",
          "name": "tokenId",
          "type": "uint256"
        }
      ],
      "name": "transferFrom",
      "outputs": [],
      "stateMutability": "nonpayable",
      "type": "function"
    },
    {
      "inputs": [
        {
          "internalType": "address",
          "name": "newOwner",
          "type": "address"
        }
      ],
      "name": "transferOwnership",
      "outputs": [],
      "stateMutability": "nonpayable",
      "type": "function"
    },
    {
      "inputs": [
        {
          "internalType": "address",
          "name": "recipient",
          "type": "address"
        },
        {
          "internalType": "string",
          "name": "tokenURI",
          "type": "string"
        }
      ],
      "name": "mintNFT",
      "outputs": [
        {
          "internalType": "uint256",
          "name": "",
          "type": "uint256"
        }
      ],
      "stateMutability": "nonpayable",
      "type": "function"
    },
    {
      "inputs": [
        {
          "internalType": "uint256",
          "name": "ammount",
          "type": "uint256"
        },
        {
          "internalType": "string",
          "name": "tokenURI",
          "type": "string"
        }
      ],
      "name": "buyNFT",
      "outputs": [
        {
          "internalType": "uint256",
          "name": "",
          "type": "uint256"
        }
      ],
      "stateMutability": "payable",
      "type": "function",
      "payable": true
    }
  ],
  "bytecode": "0x60806040523480156200001157600080fd5b506040518060400160405280600581526020017f4d794e46540000000000000000000000000000000000000000000000000000008152506040518060400160405280600381526020017f4e46540000000000000000000000000000000000000000000000000000000000815250816000908051906020019062000096929190620001fb565b508060019080519060200190620000af929190620001fb565b505050620000d2620000c66200012d60201b60201c565b6200013560201b60201c565b73c46533a8c02aa8c516eb6fc27104d69945414630600860006101000a81548173ffffffffffffffffffffffffffffffffffffffff021916908373ffffffffffffffffffffffffffffffffffffffff16021790555062000310565b600033905090565b6000600760009054906101000a900473ffffffffffffffffffffffffffffffffffffffff16905081600760006101000a81548173ffffffffffffffffffffffffffffffffffffffff021916908373ffffffffffffffffffffffffffffffffffffffff1602179055508173ffffffffffffffffffffffffffffffffffffffff168173ffffffffffffffffffffffffffffffffffffffff167f8be0079c531659141344cd1fd0a4f28419497f9722a3daafe3b4186f6b6457e060405160405180910390a35050565b8280546200020990620002da565b90600052602060002090601f0160209004810192826200022d576000855562000279565b82601f106200024857805160ff191683800117855562000279565b8280016001018555821562000279579182015b82811115620002785782518255916020019190600101906200025b565b5b5090506200028891906200028c565b5090565b5b80821115620002a75760008160009055506001016200028d565b5090565b7f4e487b7100000000000000000000000000000000000000000000000000000000600052602260045260246000fd5b60006002820490506001821680620002f357607f821691505b602082108114156200030a5762000309620002ab565b5b50919050565b61347380620003206000396000f3fe6080604052600436106101095760003560e01c8063715018a611610095578063b88d4fde11610064578063b88d4fde1461036e578063c87b56dd14610397578063e985e9c5146103d4578063eacabe1414610411578063f2fde38b1461044e57610109565b8063715018a6146102d85780638da5cb5b146102ef57806395d89b411461031a578063a22cb4651461034557610109565b8063095ea7b3116100dc578063095ea7b3146101e357806323b872dd1461020c57806342842e0e146102355780636352211e1461025e57806370a082311461029b57610109565b806301ffc9a71461010e57806306fdde031461014b578063081812fc146101765780630854748a146101b3575b600080fd5b34801561011a57600080fd5b5061013560048036038101906101309190611f54565b610477565b6040516101429190611f9c565b60405180910390f35b34801561015757600080fd5b50610160610559565b60405161016d9190612050565b60405180910390f35b34801561018257600080fd5b5061019d600480360381019061019891906120a8565b6105eb565b6040516101aa9190612116565b60405180910390f35b6101cd60048036038101906101c89190612266565b610670565b6040516101da91906122d1565b60405180910390f35b3480156101ef57600080fd5b5061020a60048036038101906102059190612318565b610863565b005b34801561021857600080fd5b50610233600480360381019061022e9190612358565b61097b565b005b34801561024157600080fd5b5061025c60048036038101906102579190612358565b6109db565b005b34801561026a57600080fd5b50610285600480360381019061028091906120a8565b6109fb565b6040516102929190612116565b60405180910390f35b3480156102a757600080fd5b506102c260048036038101906102bd91906123ab565b610aad565b6040516102cf91906122d1565b60405180910390f35b3480156102e457600080fd5b506102ed610b65565b005b3480156102fb57600080fd5b50610304610bed565b6040516103119190612116565b60405180910390f35b34801561032657600080fd5b5061032f610c17565b60405161033c9190612050565b60405180910390f35b34801561035157600080fd5b5061036c60048036038101906103679190612404565b610ca9565b005b34801561037a57600080fd5b50610395600480360381019061039091906124e5565b610e2a565b005b3480156103a357600080fd5b506103be60048036038101906103b991906120a8565b610e8c565b6040516103cb9190612050565b60405180910390f35b3480156103e057600080fd5b506103fb60048036038101906103f69190612568565b610fde565b6040516104089190611f9c565b60405180910390f35b34801561041d57600080fd5b50610438600480360381019061043391906125a8565b611072565b60405161044591906122d1565b60405180910390f35b34801561045a57600080fd5b50610475600480360381019061047091906123ab565b611126565b005b60007f80ac58cd000000000000000000000000000000000000000000000000000000007bffffffffffffffffffffffffffffffffffffffffffffffffffffffff1916827bffffffffffffffffffffffffffffffffffffffffffffffffffffffff1916148061054257507f5b5e139f000000000000000000000000000000000000000000000000000000007bffffffffffffffffffffffffffffffffffffffffffffffffffffffff1916827bffffffffffffffffffffffffffffffffffffffffffffffffffffffff1916145b8061055257506105518261121e565b5b9050919050565b60606000805461056890612633565b80601f016020809104026020016040519081016040528092919081815260200182805461059490612633565b80156105e15780601f106105b6576101008083540402835291602001916105e1565b820191906000526020600020905b8154815290600101906020018083116105c457829003601f168201915b5050505050905090565b60006105f682611288565b610635576040517f08c379a000000000000000000000000000000000000000000000000000000000815260040161062c906126d7565b60405180910390fd5b6004600083815260200190815260200160002060009054906101000a900473ffffffffffffffffffffffffffffffffffffffff169050919050565b600082600860009054906101000a900473ffffffffffffffffffffffffffffffffffffffff1673ffffffffffffffffffffffffffffffffffffffff166370a08231336040518263ffffffff1660e01b81526004016106ce9190612116565b602060405180830381600087803b1580156106e857600080fd5b505af11580156106fc573d6000803e3d6000fd5b505050506040513d601f19601f82011682018060405250810190610720919061270c565b11610760576040517f08c379a000000000000000000000000000000000000000000000000000000000815260040161075790612785565b60405180910390fd5b600860009054906101000a900473ffffffffffffffffffffffffffffffffffffffff1673ffffffffffffffffffffffffffffffffffffffff166323b872dd33732eead985920f690232a3ac68ea64f96d638f5eda866040518463ffffffff1660e01b81526004016107d3939291906127a5565b602060405180830381600087803b1580156107ed57600080fd5b505af1158015610801573d6000803e3d6000fd5b505050506040513d601f19601f8201168201806040525081019061082591906127f1565b5061083060096112f4565b600061083c600961130a565b905061084f610849611318565b82611320565b61085981846114ee565b8091505092915050565b600061086e826109fb565b90508073ffffffffffffffffffffffffffffffffffffffff168373ffffffffffffffffffffffffffffffffffffffff1614156108df576040517f08c379a00000000000000000000000000000000000000000000000000000000081526004016108d690612890565b60405180910390fd5b8073ffffffffffffffffffffffffffffffffffffffff166108fe611318565b73ffffffffffffffffffffffffffffffffffffffff16148061092d575061092c81610927611318565b610fde565b5b61096c576040517f08c379a000000000000000000000000000000000000000000000000000000000815260040161096390612922565b60405180910390fd5b6109768383611562565b505050565b61098c610986611318565b8261161b565b6109cb576040517f08c379a00000000000000000000000000000000000000000000000000000000081526004016109c2906129b4565b60405180910390fd5b6109d68383836116f9565b505050565b6109f683838360405180602001604052806000815250610e2a565b505050565b6000806002600084815260200190815260200160002060009054906101000a900473ffffffffffffffffffffffffffffffffffffffff169050600073ffffffffffffffffffffffffffffffffffffffff168173ffffffffffffffffffffffffffffffffffffffff161415610aa4576040517f08c379a0000000000000000000000000000000000000000000000000000000008152600401610a9b90612a46565b60405180910390fd5b80915050919050565b60008073ffffffffffffffffffffffffffffffffffffffff168273ffffffffffffffffffffffffffffffffffffffff161415610b1e576040517f08c379a0000000000000000000000000000000000000000000000000000000008152600401610b1590612ad8565b60405180910390fd5b600360008373ffffffffffffffffffffffffffffffffffffffff1673ffffffffffffffffffffffffffffffffffffffff168152602001908152602001600020549050919050565b610b6d611318565b73ffffffffffffffffffffffffffffffffffffffff16610b8b610bed565b73ffffffffffffffffffffffffffffffffffffffff1614610be1576040517f08c379a0000000000000000000000000000000000000000000000000000000008152600401610bd890612b44565b60405180910390fd5b610beb6000611955565b565b6000600760009054906101000a900473ffffffffffffffffffffffffffffffffffffffff16905090565b606060018054610c2690612633565b80601f0160208091040260200160405190810160405280929190818152602001828054610c5290612633565b8015610c9f5780601f10610c7457610100808354040283529160200191610c9f565b820191906000526020600020905b815481529060010190602001808311610c8257829003601f168201915b5050505050905090565b610cb1611318565b73ffffffffffffffffffffffffffffffffffffffff168273ffffffffffffffffffffffffffffffffffffffff161415610d1f576040517f08c379a0000000000000000000000000000000000000000000000000000000008152600401610d1690612bb0565b60405180910390fd5b8060056000610d2c611318565b73ffffffffffffffffffffffffffffffffffffffff1673ffffffffffffffffffffffffffffffffffffffff16815260200190815260200160002060008473ffffffffffffffffffffffffffffffffffffffff1673ffffffffffffffffffffffffffffffffffffffff16815260200190815260200160002060006101000a81548160ff0219169083151502179055508173ffffffffffffffffffffffffffffffffffffffff16610dd9611318565b73ffffffffffffffffffffffffffffffffffffffff167f17307eab39ab6107e8899845ad3d59bd9653f200f220920489ca2b5937696c3183604051610e1e9190611f9c565b60405180910390a35050565b610e3b610e35611318565b8361161b565b610e7a576040517f08c379a0000000000000000000000000000000000000000000000000000000008152600401610e71906129b4565b60405180910390fd5b610e8684848484611a1b565b50505050565b6060610e9782611288565b610ed6576040517f08c379a0000000000000000000000000000000000000000000000000000000008152600401610ecd90612c42565b60405180910390fd5b6000600660008481526020019081526020016000208054610ef690612633565b80601f0160208091040260200160405190810160405280929190818152602001828054610f2290612633565b8015610f6f5780601f10610f4457610100808354040283529160200191610f6f565b820191906000526020600020905b815481529060010190602001808311610f5257829003601f168201915b505050505090506000610f80611a77565b9050600081511415610f96578192505050610fd9565b600082511115610fcb578082604051602001610fb3929190612c9e565b60405160208183030381529060405292505050610fd9565b610fd484611a8e565b925050505b919050565b6000600560008473ffffffffffffffffffffffffffffffffffffffff1673ffffffffffffffffffffffffffffffffffffffff16815260200190815260200160002060008373ffffffffffffffffffffffffffffffffffffffff1673ffffffffffffffffffffffffffffffffffffffff16815260200190815260200160002060009054906101000a900460ff16905092915050565b600061107c611318565b73ffffffffffffffffffffffffffffffffffffffff1661109a610bed565b73ffffffffffffffffffffffffffffffffffffffff16146110f0576040517f08c379a00000000000000000000000000000000000000000000000000000000081526004016110e790612b44565b60405180910390fd5b6110fa60096112f4565b6000611106600961130a565b90506111128482611320565b61111c81846114ee565b8091505092915050565b61112e611318565b73ffffffffffffffffffffffffffffffffffffffff1661114c610bed565b73ffffffffffffffffffffffffffffffffffffffff16146111a2576040517f08c379a000000000000000000000000000000000000000000000000000000000815260040161119990612b44565b60405180910390fd5b600073ffffffffffffffffffffffffffffffffffffffff168173ffffffffffffffffffffffffffffffffffffffff161415611212576040517f08c379a000000000000000000000000000000000000000000000000000000000815260040161120990612d34565b60405180910390fd5b61121b81611955565b50565b60007f01ffc9a7000000000000000000000000000000000000000000000000000000007bffffffffffffffffffffffffffffffffffffffffffffffffffffffff1916827bffffffffffffffffffffffffffffffffffffffffffffffffffffffff1916149050919050565b60008073ffffffffffffffffffffffffffffffffffffffff166002600084815260200190815260200160002060009054906101000a900473ffffffffffffffffffffffffffffffffffffffff1673ffffffffffffffffffffffffffffffffffffffff1614159050919050565b6001816000016000828254019250508190555050565b600081600001549050919050565b600033905090565b600073ffffffffffffffffffffffffffffffffffffffff168273ffffffffffffffffffffffffffffffffffffffff161415611390576040517f08c379a000000000000000000000000000000000000000000000000000000000815260040161138790612da0565b60405180910390fd5b61139981611288565b156113d9576040517f08c379a00000000000000000000000000000000000000000000000000000000081526004016113d090612e0c565b60405180910390fd5b6113e560008383611b35565b6001600360008473ffffffffffffffffffffffffffffffffffffffff1673ffffffffffffffffffffffffffffffffffffffff16815260200190815260200160002060008282546114359190612e5b565b92505081905550816002600083815260200190815260200160002060006101000a81548173ffffffffffffffffffffffffffffffffffffffff021916908373ffffffffffffffffffffffffffffffffffffffff160217905550808273ffffffffffffffffffffffffffffffffffffffff16600073ffffffffffffffffffffffffffffffffffffffff167fddf252ad1be2c89b69c2b068fc378daa952ba7f163c4a11628f55a4df523b3ef60405160405180910390a45050565b6114f782611288565b611536576040517f08c379a000000000000000000000000000000000000000000000000000000000815260040161152d90612f23565b60405180910390fd5b8060066000848152602001908152602001600020908051906020019061155d929190611e45565b505050565b816004600083815260200190815260200160002060006101000a81548173ffffffffffffffffffffffffffffffffffffffff021916908373ffffffffffffffffffffffffffffffffffffffff160217905550808273ffffffffffffffffffffffffffffffffffffffff166115d5836109fb565b73ffffffffffffffffffffffffffffffffffffffff167f8c5be1e5ebec7d5bd14f71427d1e84f3dd0314c0f7b2291e5b200ac8c7c3b92560405160405180910390a45050565b600061162682611288565b611665576040517f08c379a000000000000000000000000000000000000000000000000000000000815260040161165c90612fb5565b60405180910390fd5b6000611670836109fb565b90508073ffffffffffffffffffffffffffffffffffffffff168473ffffffffffffffffffffffffffffffffffffffff1614806116df57508373ffffffffffffffffffffffffffffffffffffffff166116c7846105eb565b73ffffffffffffffffffffffffffffffffffffffff16145b806116f057506116ef8185610fde565b5b91505092915050565b8273ffffffffffffffffffffffffffffffffffffffff16611719826109fb565b73ffffffffffffffffffffffffffffffffffffffff161461176f576040517f08c379a000000000000000000000000000000000000000000000000000000000815260040161176690613047565b60405180910390fd5b600073ffffffffffffffffffffffffffffffffffffffff168273ffffffffffffffffffffffffffffffffffffffff1614156117df576040517f08c379a00000000000000000000000000000000000000000000000000000000081526004016117d6906130d9565b60405180910390fd5b6117ea838383611b35565b6117f5600082611562565b6001600360008573ffffffffffffffffffffffffffffffffffffffff1673ffffffffffffffffffffffffffffffffffffffff168152602001908152602001600020600082825461184591906130f9565b925050819055506001600360008473ffffffffffffffffffffffffffffffffffffffff1673ffffffffffffffffffffffffffffffffffffffff168152602001908152602001600020600082825461189c9190612e5b565b92505081905550816002600083815260200190815260200160002060006101000a81548173ffffffffffffffffffffffffffffffffffffffff021916908373ffffffffffffffffffffffffffffffffffffffff160217905550808273ffffffffffffffffffffffffffffffffffffffff168473ffffffffffffffffffffffffffffffffffffffff167fddf252ad1be2c89b69c2b068fc378daa952ba7f163c4a11628f55a4df523b3ef60405160405180910390a4505050565b6000600760009054906101000a900473ffffffffffffffffffffffffffffffffffffffff16905081600760006101000a81548173ffffffffffffffffffffffffffffffffffffffff021916908373ffffffffffffffffffffffffffffffffffffffff1602179055508173ffffffffffffffffffffffffffffffffffffffff168173ffffffffffffffffffffffffffffffffffffffff167f8be0079c531659141344cd1fd0a4f28419497f9722a3daafe3b4186f6b6457e060405160405180910390a35050565b611a268484846116f9565b611a3284848484611b3a565b611a71576040517f08c379a0000000000000000000000000000000000000000000000000000000008152600401611a689061319f565b60405180910390fd5b50505050565b606060405180602001604052806000815250905090565b6060611a9982611288565b611ad8576040517f08c379a0000000000000000000000000000000000000000000000000000000008152600401611acf90613231565b60405180910390fd5b6000611ae2611a77565b90506000815111611b025760405180602001604052806000815250611b2d565b80611b0c84611cd1565b604051602001611b1d929190612c9e565b6040516020818303038152906040525b915050919050565b505050565b6000611b5b8473ffffffffffffffffffffffffffffffffffffffff16611e32565b15611cc4578373ffffffffffffffffffffffffffffffffffffffff1663150b7a02611b84611318565b8786866040518563ffffffff1660e01b8152600401611ba694939291906132a6565b602060405180830381600087803b158015611bc057600080fd5b505af1925050508015611bf157506040513d601f19601f82011682018060405250810190611bee9190613307565b60015b611c74573d8060008114611c21576040519150601f19603f3d011682016040523d82523d6000602084013e611c26565b606091505b50600081511415611c6c576040517f08c379a0000000000000000000000000000000000000000000000000000000008152600401611c639061319f565b60405180910390fd5b805181602001fd5b63150b7a0260e01b7bffffffffffffffffffffffffffffffffffffffffffffffffffffffff1916817bffffffffffffffffffffffffffffffffffffffffffffffffffffffff191614915050611cc9565b600190505b949350505050565b60606000821415611d19576040518060400160405280600181526020017f30000000000000000000000000000000000000000000000000000000000000008152509050611e2d565b600082905060005b60008214611d4b578080611d3490613334565b915050600a82611d4491906133ac565b9150611d21565b60008167ffffffffffffffff811115611d6757611d6661213b565b5b6040519080825280601f01601f191660200182016040528015611d995781602001600182028036833780820191505090505b5090505b60008514611e2657600182611db291906130f9565b9150600a85611dc191906133dd565b6030611dcd9190612e5b565b60f81b818381518110611de357611de261340e565b5b60200101907effffffffffffffffffffffffffffffffffffffffffffffffffffffffffffff1916908160001a905350600a85611e1f91906133ac565b9450611d9d565b8093505050505b919050565b600080823b905060008111915050919050565b828054611e5190612633565b90600052602060002090601f016020900481019282611e735760008555611eba565b82601f10611e8c57805160ff1916838001178555611eba565b82800160010185558215611eba579182015b82811115611eb9578251825591602001919060010190611e9e565b5b509050611ec79190611ecb565b5090565b5b80821115611ee4576000816000905550600101611ecc565b5090565b6000604051905090565b600080fd5b600080fd5b60007fffffffff0000000000000000000000000000000000000000000000000000000082169050919050565b611f3181611efc565b8114611f3c57600080fd5b50565b600081359050611f4e81611f28565b92915050565b600060208284031215611f6a57611f69611ef2565b5b6000611f7884828501611f3f565b91505092915050565b60008115159050919050565b611f9681611f81565b82525050565b6000602082019050611fb16000830184611f8d565b92915050565b600081519050919050565b600082825260208201905092915050565b60005b83811015611ff1578082015181840152602081019050611fd6565b83811115612000576000848401525b50505050565b6000601f19601f8301169050919050565b600061202282611fb7565b61202c8185611fc2565b935061203c818560208601611fd3565b61204581612006565b840191505092915050565b6000602082019050818103600083015261206a8184612017565b905092915050565b6000819050919050565b61208581612072565b811461209057600080fd5b50565b6000813590506120a28161207c565b92915050565b6000602082840312156120be576120bd611ef2565b5b60006120cc84828501612093565b91505092915050565b600073ffffffffffffffffffffffffffffffffffffffff82169050919050565b6000612100826120d5565b9050919050565b612110816120f5565b82525050565b600060208201905061212b6000830184612107565b92915050565b600080fd5b600080fd5b7f4e487b7100000000000000000000000000000000000000000000000000000000600052604160045260246000fd5b61217382612006565b810181811067ffffffffffffffff821117156121925761219161213b565b5b80604052505050565b60006121a5611ee8565b90506121b1828261216a565b919050565b600067ffffffffffffffff8211156121d1576121d061213b565b5b6121da82612006565b9050602081019050919050565b82818337600083830152505050565b6000612209612204846121b6565b61219b565b90508281526020810184848401111561222557612224612136565b5b6122308482856121e7565b509392505050565b600082601f83011261224d5761224c612131565b5b813561225d8482602086016121f6565b91505092915050565b6000806040838503121561227d5761227c611ef2565b5b600061228b85828601612093565b925050602083013567ffffffffffffffff8111156122ac576122ab611ef7565b5b6122b885828601612238565b9150509250929050565b6122cb81612072565b82525050565b60006020820190506122e660008301846122c2565b92915050565b6122f5816120f5565b811461230057600080fd5b50565b600081359050612312816122ec565b92915050565b6000806040838503121561232f5761232e611ef2565b5b600061233d85828601612303565b925050602061234e85828601612093565b9150509250929050565b60008060006060848603121561237157612370611ef2565b5b600061237f86828701612303565b935050602061239086828701612303565b92505060406123a186828701612093565b9150509250925092565b6000602082840312156123c1576123c0611ef2565b5b60006123cf84828501612303565b91505092915050565b6123e181611f81565b81146123ec57600080fd5b50565b6000813590506123fe816123d8565b92915050565b6000806040838503121561241b5761241a611ef2565b5b600061242985828601612303565b925050602061243a858286016123ef565b9150509250929050565b600067ffffffffffffffff82111561245f5761245e61213b565b5b61246882612006565b9050602081019050919050565b600061248861248384612444565b61219b565b9050828152602081018484840111156124a4576124a3612136565b5b6124af8482856121e7565b509392505050565b600082601f8301126124cc576124cb612131565b5b81356124dc848260208601612475565b91505092915050565b600080600080608085870312156124ff576124fe611ef2565b5b600061250d87828801612303565b945050602061251e87828801612303565b935050604061252f87828801612093565b925050606085013567ffffffffffffffff8111156125505761254f611ef7565b5b61255c878288016124b7565b91505092959194509250565b6000806040838503121561257f5761257e611ef2565b5b600061258d85828601612303565b925050602061259e85828601612303565b9150509250929050565b600080604083850312156125bf576125be611ef2565b5b60006125cd85828601612303565b925050602083013567ffffffffffffffff8111156125ee576125ed611ef7565b5b6125fa85828601612238565b9150509250929050565b7f4e487b7100000000000000000000000000000000000000000000000000000000600052602260045260246000fd5b6000600282049050600182168061264b57607f821691505b6020821081141561265f5761265e612604565b5b50919050565b7f4552433732313a20617070726f76656420717565727920666f72206e6f6e657860008201527f697374656e7420746f6b656e0000000000000000000000000000000000000000602082015250565b60006126c1602c83611fc2565b91506126cc82612665565b604082019050919050565b600060208201905081810360008301526126f0816126b4565b9050919050565b6000815190506127068161207c565b92915050565b60006020828403121561272257612721611ef2565b5b6000612730848285016126f7565b91505092915050565b7f62616c616e6365206e6f7420656e6f7567680000000000000000000000000000600082015250565b600061276f601283611fc2565b915061277a82612739565b602082019050919050565b6000602082019050818103600083015261279e81612762565b9050919050565b60006060820190506127ba6000830186612107565b6127c76020830185612107565b6127d460408301846122c2565b949350505050565b6000815190506127eb816123d8565b92915050565b60006020828403121561280757612806611ef2565b5b6000612815848285016127dc565b91505092915050565b7f4552433732313a20617070726f76616c20746f2063757272656e74206f776e6560008201527f7200000000000000000000000000000000000000000000000000000000000000602082015250565b600061287a602183611fc2565b91506128858261281e565b604082019050919050565b600060208201905081810360008301526128a98161286d565b9050919050565b7f4552433732313a20617070726f76652063616c6c6572206973206e6f74206f7760008201527f6e6572206e6f7220617070726f76656420666f7220616c6c0000000000000000602082015250565b600061290c603883611fc2565b9150612917826128b0565b604082019050919050565b6000602082019050818103600083015261293b816128ff565b9050919050565b7f4552433732313a207472616e736665722063616c6c6572206973206e6f74206f60008201527f776e6572206e6f7220617070726f766564000000000000000000000000000000602082015250565b600061299e603183611fc2565b91506129a982612942565b604082019050919050565b600060208201905081810360008301526129cd81612991565b9050919050565b7f4552433732313a206f776e657220717565727920666f72206e6f6e657869737460008201527f656e7420746f6b656e0000000000000000000000000000000000000000000000602082015250565b6000612a30602983611fc2565b9150612a3b826129d4565b604082019050919050565b60006020820190508181036000830152612a5f81612a23565b9050919050565b7f4552433732313a2062616c616e636520717565727920666f7220746865207a6560008201527f726f206164647265737300000000000000000000000000000000000000000000602082015250565b6000612ac2602a83611fc2565b9150612acd82612a66565b604082019050919050565b60006020820190508181036000830152612af181612ab5565b9050919050565b7f4f776e61626c653a2063616c6c6572206973206e6f7420746865206f776e6572600082015250565b6000612b2e602083611fc2565b9150612b3982612af8565b602082019050919050565b60006020820190508181036000830152612b5d81612b21565b9050919050565b7f4552433732313a20617070726f766520746f2063616c6c657200000000000000600082015250565b6000612b9a601983611fc2565b9150612ba582612b64565b602082019050919050565b60006020820190508181036000830152612bc981612b8d565b9050919050565b7f45524337323155524953746f726167653a2055524920717565727920666f722060008201527f6e6f6e6578697374656e7420746f6b656e000000000000000000000000000000602082015250565b6000612c2c603183611fc2565b9150612c3782612bd0565b604082019050919050565b60006020820190508181036000830152612c5b81612c1f565b9050919050565b600081905092915050565b6000612c7882611fb7565b612c828185612c62565b9350612c92818560208601611fd3565b80840191505092915050565b6000612caa8285612c6d565b9150612cb68284612c6d565b91508190509392505050565b7f4f776e61626c653a206e6577206f776e657220697320746865207a65726f206160008201527f6464726573730000000000000000000000000000000000000000000000000000602082015250565b6000612d1e602683611fc2565b9150612d2982612cc2565b604082019050919050565b60006020820190508181036000830152612d4d81612d11565b9050919050565b7f4552433732313a206d696e7420746f20746865207a65726f2061646472657373600082015250565b6000612d8a602083611fc2565b9150612d9582612d54565b602082019050919050565b60006020820190508181036000830152612db981612d7d565b9050919050565b7f4552433732313a20746f6b656e20616c7265616479206d696e74656400000000600082015250565b6000612df6601c83611fc2565b9150612e0182612dc0565b602082019050919050565b60006020820190508181036000830152612e2581612de9565b9050919050565b7f4e487b7100000000000000000000000000000000000000000000000000000000600052601160045260246000fd5b6000612e6682612072565b9150612e7183612072565b9250827fffffffffffffffffffffffffffffffffffffffffffffffffffffffffffffffff03821115612ea657612ea5612e2c565b5b828201905092915050565b7f45524337323155524953746f726167653a2055524920736574206f66206e6f6e60008201527f6578697374656e7420746f6b656e000000000000000000000000000000000000602082015250565b6000612f0d602e83611fc2565b9150612f1882612eb1565b604082019050919050565b60006020820190508181036000830152612f3c81612f00565b9050919050565b7f4552433732313a206f70657261746f7220717565727920666f72206e6f6e657860008201527f697374656e7420746f6b656e0000000000000000000000000000000000000000602082015250565b6000612f9f602c83611fc2565b9150612faa82612f43565b604082019050919050565b60006020820190508181036000830152612fce81612f92565b9050919050565b7f4552433732313a207472616e73666572206f6620746f6b656e2074686174206960008201527f73206e6f74206f776e0000000000000000000000000000000000000000000000602082015250565b6000613031602983611fc2565b915061303c82612fd5565b604082019050919050565b6000602082019050818103600083015261306081613024565b9050919050565b7f4552433732313a207472616e7366657220746f20746865207a65726f2061646460008201527f7265737300000000000000000000000000000000000000000000000000000000602082015250565b60006130c3602483611fc2565b91506130ce82613067565b604082019050919050565b600060208201905081810360008301526130f2816130b6565b9050919050565b600061310482612072565b915061310f83612072565b92508282101561312257613121612e2c565b5b828203905092915050565b7f4552433732313a207472616e7366657220746f206e6f6e20455243373231526560008201527f63656976657220696d706c656d656e7465720000000000000000000000000000602082015250565b6000613189603283611fc2565b91506131948261312d565b604082019050919050565b600060208201905081810360008301526131b88161317c565b9050919050565b7f4552433732314d657461646174613a2055524920717565727920666f72206e6f60008201527f6e6578697374656e7420746f6b656e0000000000000000000000000000000000602082015250565b600061321b602f83611fc2565b9150613226826131bf565b604082019050919050565b6000602082019050818103600083015261324a8161320e565b9050919050565b600081519050919050565b600082825260208201905092915050565b600061327882613251565b613282818561325c565b9350613292818560208601611fd3565b61329b81612006565b840191505092915050565b60006080820190506132bb6000830187612107565b6132c86020830186612107565b6132d560408301856122c2565b81810360608301526132e7818461326d565b905095945050505050565b60008151905061330181611f28565b92915050565b60006020828403121561331d5761331c611ef2565b5b600061332b848285016132f2565b91505092915050565b600061333f82612072565b91507fffffffffffffffffffffffffffffffffffffffffffffffffffffffffffffffff82141561337257613371612e2c565b5b600182019050919050565b7f4e487b7100000000000000000000000000000000000000000000000000000000600052601260045260246000fd5b60006133b782612072565b91506133c283612072565b9250826133d2576133d161337d565b5b828204905092915050565b60006133e882612072565b91506133f383612072565b9250826134035761340261337d565b5b828206905092915050565b7f4e487b7100000000000000000000000000000000000000000000000000000000600052603260045260246000fdfea2646970667358221220b35e35f721b1e3ed821776d7129801ebca67b02dc8fe86678bd6497450c8de7164736f6c63430008090033",
  "immutableReferences": {},
  "source": "//Contract based on [https://docs.openzeppelin.com/contracts/3.x/erc721](https://docs.openzeppelin.com/contracts/3.x/erc721)\r\n// SPDX-License-Identifier: MIT\r\npragma solidity ^0.8.0;\r\n\r\nimport \"@openzeppelin/contracts/token/ERC721/ERC721.sol\";\r\nimport \"@openzeppelin/contracts/utils/Counters.sol\";\r\nimport \"@openzeppelin/contracts/access/Ownable.sol\";\r\nimport \"@openzeppelin/contracts/token/ERC721/extensions/ERC721URIStorage.sol\";\r\n\r\ninterface ConsumeToken {\r\n    function transfer(address to, uint256 value) external returns (bool success); \r\n    function balanceOf(address account) external returns (uint256); \r\n    function transferFrom(\r\n        address sender,\r\n        address recipient,\r\n        uint256 amount\r\n    ) external returns (bool) ;\r\n}\r\n\r\ncontract MyNFT is ERC721URIStorage, Ownable {\r\n    using Counters for Counters.Counter;\r\n    ConsumeToken mt;\r\n    Counters.Counter private _tokenIds;\r\n\r\n    constructor()  ERC721(\"MyNFT\", \"NFT\") {\r\n        mt=ConsumeToken(0xc46533A8c02aA8C516Eb6Fc27104d69945414630);\r\n    }\r\n\r\n    function mintNFT(address recipient, string memory tokenURI)\r\n        public onlyOwner\r\n        returns (uint256)\r\n    {\r\n        _tokenIds.increment();\r\n\r\n        uint256 newItemId = _tokenIds.current();\r\n        _mint(recipient, newItemId);\r\n        _setTokenURI(newItemId, tokenURI);\r\n\r\n        return newItemId;\r\n    }\r\n    function buyNFT(uint256 ammount, string memory tokenURI)\r\n        public payable\r\n        returns (uint256)\r\n    {\r\n        require(mt.balanceOf(msg.sender)>ammount,\"balance not enough\" );\r\n        mt.transferFrom(msg.sender,0x2EEAd985920f690232a3AC68EA64f96D638F5Eda, ammount);\r\n        _tokenIds.increment();\r\n\r\n        uint256 newItemId = _tokenIds.current();\r\n        _mint(_msgSender(), newItemId);\r\n        _setTokenURI(newItemId, tokenURI);\r\n\r\n        return newItemId;\r\n    }\r\n}\r\n",
  "sourcePath": "C:\\work\\MyNft\\contracts\\MyNft.sol",
  "compiler": {
    "name": "solc",
    "version": "0.8.9+commit.e5eed63a.Emscripten.clang"
  },
  "schemaVersion": "3.4.3",
  "updatedAt": "2021-11-19T03:59:02.840Z",
  "networkType": "ethereum",
  "devdoc": {
    "kind": "dev",
    "methods": {
      "approve(address,uint256)": {
        "details": "See {IERC721-approve}."
      },
      "balanceOf(address)": {
        "details": "See {IERC721-balanceOf}."
      },
      "getApproved(uint256)": {
        "details": "See {IERC721-getApproved}."
      },
      "isApprovedForAll(address,address)": {
        "details": "See {IERC721-isApprovedForAll}."
      },
      "name()": {
        "details": "See {IERC721Metadata-name}."
      },
      "owner()": {
        "details": "Returns the address of the current owner."
      },
      "ownerOf(uint256)": {
        "details": "See {IERC721-ownerOf}."
      },
      "renounceOwnership()": {
        "details": "Leaves the contract without owner. It will not be possible to call `onlyOwner` functions anymore. Can only be called by the current owner. NOTE: Renouncing ownership will leave the contract without an owner, thereby removing any functionality that is only available to the owner."
      },
      "safeTransferFrom(address,address,uint256)": {
        "details": "See {IERC721-safeTransferFrom}."
      },
      "safeTransferFrom(address,address,uint256,bytes)": {
        "details": "See {IERC721-safeTransferFrom}."
      },
      "setApprovalForAll(address,bool)": {
        "details": "See {IERC721-setApprovalForAll}."
      },
      "supportsInterface(bytes4)": {
        "details": "See {IERC165-supportsInterface}."
      },
      "symbol()": {
        "details": "See {IERC721Metadata-symbol}."
      },
      "tokenURI(uint256)": {
        "details": "See {IERC721Metadata-tokenURI}."
      },
      "transferFrom(address,address,uint256)": {
        "details": "See {IERC721-transferFrom}."
      },
      "transferOwnership(address)": {
        "details": "Transfers ownership of the contract to a new account (`newOwner`). Can only be called by the current owner."
      }
    },
    "version": 1
  },
  "userdoc": {
    "kind": "user",
    "methods": {},
    "version": 1
  }
}